{
	"data": {
		"bytecode": {
			"linkReferences": {},
			"object": "608060405234801561000f575f80fd5b50610b918061001d5f395ff3fe608060405234801561000f575f80fd5b506004361061003f575f3560e01c8063363bc427146100435780633d746f7814610075578063d68a97c1146100a7575b5f80fd5b61005d600480360381019061005891906104c9565b6100d7565b60405161006c9392919061058d565b60405180910390f35b61008f600480360381019061008a91906104c9565b610217565b60405161009e9392919061058d565b60405180910390f35b6100c160048036038101906100bc91906106fc565b6103b1565b6040516100ce9190610784565b60405180910390f35b5f81815481106100e5575f80fd5b905f5260205f2090600302015f91509050805f018054610104906107ca565b80601f0160208091040260200160405190810160405280929190818152602001828054610130906107ca565b801561017b5780601f106101525761010080835404028352916020019161017b565b820191905f5260205f20905b81548152906001019060200180831161015e57829003601f168201915b505050505090806001018054610190906107ca565b80601f01602080910402602001604051908101604052809291908181526020018280546101bc906107ca565b80156102075780601f106101de57610100808354040283529160200191610207565b820191905f5260205f20905b8154815290600101906020018083116101ea57829003601f168201915b5050505050908060020154905083565b6060805f80805490508410610261576040517f08c379a000000000000000000000000000000000000000000000000000000000815260040161025890610844565b60405180910390fd5b5f80858154811061027557610274610862565b5b905f5260205f2090600302019050805f0181600101826002015482805461029b906107ca565b80601f01602080910402602001604051908101604052809291908181526020018280546102c7906107ca565b80156103125780601f106102e957610100808354040283529160200191610312565b820191905f5260205f20905b8154815290600101906020018083116102f557829003601f168201915b50505050509250818054610325906107ca565b80601f0160208091040260200160405190810160405280929190818152602001828054610351906107ca565b801561039c5780601f106103735761010080835404028352916020019161039c565b820191905f5260205f20905b81548152906001019060200180831161037f57829003601f168201915b50505050509150935093509350509193909250565b5f80604051806060016040528086815260200185815260200184815250908060018154018082558091505060019003905f5260205f2090600302015f909190919091505f820151815f0190816104079190610a2c565b50602082015181600101908161041d9190610a2c565b506040820151816002015550505f60015f8054905061043c9190610b28565b9050807f05cea50925077531f5597a1b77c02e7439fba71a7fdd68704013f74af66af8608686866040516104729392919061058d565b60405180910390a2809150509392505050565b5f604051905090565b5f80fd5b5f80fd5b5f819050919050565b6104a881610496565b81146104b2575f80fd5b50565b5f813590506104c38161049f565b92915050565b5f602082840312156104de576104dd61048e565b5b5f6104eb848285016104b5565b91505092915050565b5f81519050919050565b5f82825260208201905092915050565b5f5b8381101561052b578082015181840152602081019050610510565b5f8484015250505050565b5f601f19601f8301169050919050565b5f610550826104f4565b61055a81856104fe565b935061056a81856020860161050e565b61057381610536565b840191505092915050565b61058781610496565b82525050565b5f6060820190508181035f8301526105a58186610546565b905081810360208301526105b98185610546565b90506105c8604083018461057e565b949350505050565b5f80fd5b5f80fd5b7f4e487b71000000000000000000000000000000000000000000000000000000005f52604160045260245ffd5b61060e82610536565b810181811067ffffffffffffffff8211171561062d5761062c6105d8565b5b80604052505050565b5f61063f610485565b905061064b8282610605565b919050565b5f67ffffffffffffffff82111561066a576106696105d8565b5b61067382610536565b9050602081019050919050565b828183375f83830152505050565b5f6106a061069b84610650565b610636565b9050828152602081018484840111156106bc576106bb6105d4565b5b6106c7848285610680565b509392505050565b5f82601f8301126106e3576106e26105d0565b5b81356106f384826020860161068e565b91505092915050565b5f805f606084860312156107135761071261048e565b5b5f84013567ffffffffffffffff8111156107305761072f610492565b5b61073c868287016106cf565b935050602084013567ffffffffffffffff81111561075d5761075c610492565b5b610769868287016106cf565b925050604061077a868287016104b5565b9150509250925092565b5f6020820190506107975f83018461057e565b92915050565b7f4e487b71000000000000000000000000000000000000000000000000000000005f52602260045260245ffd5b5f60028204905060018216806107e157607f821691505b6020821081036107f4576107f361079d565b5b50919050565b7f496e76616c696420706f7374696e6720696e64657800000000000000000000005f82015250565b5f61082e6015836104fe565b9150610839826107fa565b602082019050919050565b5f6020820190508181035f83015261085b81610822565b9050919050565b7f4e487b71000000000000000000000000000000000000000000000000000000005f52603260045260245ffd5b5f819050815f5260205f209050919050565b5f6020601f8301049050919050565b5f82821b905092915050565b5f600883026108eb7fffffffffffffffffffffffffffffffffffffffffffffffffffffffffffffffff826108b0565b6108f586836108b0565b95508019841693508086168417925050509392505050565b5f819050919050565b5f61093061092b61092684610496565b61090d565b610496565b9050919050565b5f819050919050565b61094983610916565b61095d61095582610937565b8484546108bc565b825550505050565b5f90565b610971610965565b61097c818484610940565b505050565b5b8181101561099f576109945f82610969565b600181019050610982565b5050565b601f8211156109e4576109b58161088f565b6109be846108a1565b810160208510156109cd578190505b6109e16109d9856108a1565b830182610981565b50505b505050565b5f82821c905092915050565b5f610a045f19846008026109e9565b1980831691505092915050565b5f610a1c83836109f5565b9150826002028217905092915050565b610a35826104f4565b67ffffffffffffffff811115610a4e57610a4d6105d8565b5b610a5882546107ca565b610a638282856109a3565b5f60209050601f831160018114610a94575f8415610a82578287015190505b610a8c8582610a11565b865550610af3565b601f198416610aa28661088f565b5f5b82811015610ac957848901518255600182019150602085019450602081019050610aa4565b86831015610ae65784890151610ae2601f8916826109f5565b8355505b6001600288020188555050505b505050505050565b7f4e487b71000000000000000000000000000000000000000000000000000000005f52601160045260245ffd5b5f610b3282610496565b9150610b3d83610496565b9250828203905081811115610b5557610b54610afb565b5b9291505056fea26469706673582212207fe7d87b5fe668ebd984aad7031f22c6823440b232bdb6abe28a43b42d4aa0d964736f6c63430008160033",
			"opcodes": "PUSH1 0x80 PUSH1 0x40 MSTORE CALLVALUE DUP1 ISZERO PUSH2 0xF JUMPI PUSH0 DUP1 REVERT JUMPDEST POP PUSH2 0xB91 DUP1 PUSH2 0x1D PUSH0 CODECOPY PUSH0 RETURN INVALID PUSH1 0x80 PUSH1 0x40 MSTORE CALLVALUE DUP1 ISZERO PUSH2 0xF JUMPI PUSH0 DUP1 REVERT JUMPDEST POP PUSH1 0x4 CALLDATASIZE LT PUSH2 0x3F JUMPI PUSH0 CALLDATALOAD PUSH1 0xE0 SHR DUP1 PUSH4 0x363BC427 EQ PUSH2 0x43 JUMPI DUP1 PUSH4 0x3D746F78 EQ PUSH2 0x75 JUMPI DUP1 PUSH4 0xD68A97C1 EQ PUSH2 0xA7 JUMPI JUMPDEST PUSH0 DUP1 REVERT JUMPDEST PUSH2 0x5D PUSH1 0x4 DUP1 CALLDATASIZE SUB DUP2 ADD SWAP1 PUSH2 0x58 SWAP2 SWAP1 PUSH2 0x4C9 JUMP JUMPDEST PUSH2 0xD7 JUMP JUMPDEST PUSH1 0x40 MLOAD PUSH2 0x6C SWAP4 SWAP3 SWAP2 SWAP1 PUSH2 0x58D JUMP JUMPDEST PUSH1 0x40 MLOAD DUP1 SWAP2 SUB SWAP1 RETURN JUMPDEST PUSH2 0x8F PUSH1 0x4 DUP1 CALLDATASIZE SUB DUP2 ADD SWAP1 PUSH2 0x8A SWAP2 SWAP1 PUSH2 0x4C9 JUMP JUMPDEST PUSH2 0x217 JUMP JUMPDEST PUSH1 0x40 MLOAD PUSH2 0x9E SWAP4 SWAP3 SWAP2 SWAP1 PUSH2 0x58D JUMP JUMPDEST PUSH1 0x40 MLOAD DUP1 SWAP2 SUB SWAP1 RETURN JUMPDEST PUSH2 0xC1 PUSH1 0x4 DUP1 CALLDATASIZE SUB DUP2 ADD SWAP1 PUSH2 0xBC SWAP2 SWAP1 PUSH2 0x6FC JUMP JUMPDEST PUSH2 0x3B1 JUMP JUMPDEST PUSH1 0x40 MLOAD PUSH2 0xCE SWAP2 SWAP1 PUSH2 0x784 JUMP JUMPDEST PUSH1 0x40 MLOAD DUP1 SWAP2 SUB SWAP1 RETURN JUMPDEST PUSH0 DUP2 DUP2 SLOAD DUP2 LT PUSH2 0xE5 JUMPI PUSH0 DUP1 REVERT JUMPDEST SWAP1 PUSH0 MSTORE PUSH1 0x20 PUSH0 KECCAK256 SWAP1 PUSH1 0x3 MUL ADD PUSH0 SWAP2 POP SWAP1 POP DUP1 PUSH0 ADD DUP1 SLOAD PUSH2 0x104 SWAP1 PUSH2 0x7CA JUMP JUMPDEST DUP1 PUSH1 0x1F ADD PUSH1 0x20 DUP1 SWAP2 DIV MUL PUSH1 0x20 ADD PUSH1 0x40 MLOAD SWAP1 DUP2 ADD PUSH1 0x40 MSTORE DUP1 SWAP3 SWAP2 SWAP1 DUP2 DUP2 MSTORE PUSH1 0x20 ADD DUP3 DUP1 SLOAD PUSH2 0x130 SWAP1 PUSH2 0x7CA JUMP JUMPDEST DUP1 ISZERO PUSH2 0x17B JUMPI DUP1 PUSH1 0x1F LT PUSH2 0x152 JUMPI PUSH2 0x100 DUP1 DUP4 SLOAD DIV MUL DUP4 MSTORE SWAP2 PUSH1 0x20 ADD SWAP2 PUSH2 0x17B JUMP JUMPDEST DUP3 ADD SWAP2 SWAP1 PUSH0 MSTORE PUSH1 0x20 PUSH0 KECCAK256 SWAP1 JUMPDEST DUP2 SLOAD DUP2 MSTORE SWAP1 PUSH1 0x1 ADD SWAP1 PUSH1 0x20 ADD DUP1 DUP4 GT PUSH2 0x15E JUMPI DUP3 SWAP1 SUB PUSH1 0x1F AND DUP3 ADD SWAP2 JUMPDEST POP POP POP POP POP SWAP1 DUP1 PUSH1 0x1 ADD DUP1 SLOAD PUSH2 0x190 SWAP1 PUSH2 0x7CA JUMP JUMPDEST DUP1 PUSH1 0x1F ADD PUSH1 0x20 DUP1 SWAP2 DIV MUL PUSH1 0x20 ADD PUSH1 0x40 MLOAD SWAP1 DUP2 ADD PUSH1 0x40 MSTORE DUP1 SWAP3 SWAP2 SWAP1 DUP2 DUP2 MSTORE PUSH1 0x20 ADD DUP3 DUP1 SLOAD PUSH2 0x1BC SWAP1 PUSH2 0x7CA JUMP JUMPDEST DUP1 ISZERO PUSH2 0x207 JUMPI DUP1 PUSH1 0x1F LT PUSH2 0x1DE JUMPI PUSH2 0x100 DUP1 DUP4 SLOAD DIV MUL DUP4 MSTORE SWAP2 PUSH1 0x20 ADD SWAP2 PUSH2 0x207 JUMP JUMPDEST DUP3 ADD SWAP2 SWAP1 PUSH0 MSTORE PUSH1 0x20 PUSH0 KECCAK256 SWAP1 JUMPDEST DUP2 SLOAD DUP2 MSTORE SWAP1 PUSH1 0x1 ADD SWAP1 PUSH1 0x20 ADD DUP1 DUP4 GT PUSH2 0x1EA JUMPI DUP3 SWAP1 SUB PUSH1 0x1F AND DUP3 ADD SWAP2 JUMPDEST POP POP POP POP POP SWAP1 DUP1 PUSH1 0x2 ADD SLOAD SWAP1 POP DUP4 JUMP JUMPDEST PUSH1 0x60 DUP1 PUSH0 DUP1 DUP1 SLOAD SWAP1 POP DUP5 LT PUSH2 0x261 JUMPI PUSH1 0x40 MLOAD PUSH32 0x8C379A000000000000000000000000000000000000000000000000000000000 DUP2 MSTORE PUSH1 0x4 ADD PUSH2 0x258 SWAP1 PUSH2 0x844 JUMP JUMPDEST PUSH1 0x40 MLOAD DUP1 SWAP2 SUB SWAP1 REVERT JUMPDEST PUSH0 DUP1 DUP6 DUP2 SLOAD DUP2 LT PUSH2 0x275 JUMPI PUSH2 0x274 PUSH2 0x862 JUMP JUMPDEST JUMPDEST SWAP1 PUSH0 MSTORE PUSH1 0x20 PUSH0 KECCAK256 SWAP1 PUSH1 0x3 MUL ADD SWAP1 POP DUP1 PUSH0 ADD DUP2 PUSH1 0x1 ADD DUP3 PUSH1 0x2 ADD SLOAD DUP3 DUP1 SLOAD PUSH2 0x29B SWAP1 PUSH2 0x7CA JUMP JUMPDEST DUP1 PUSH1 0x1F ADD PUSH1 0x20 DUP1 SWAP2 DIV MUL PUSH1 0x20 ADD PUSH1 0x40 MLOAD SWAP1 DUP2 ADD PUSH1 0x40 MSTORE DUP1 SWAP3 SWAP2 SWAP1 DUP2 DUP2 MSTORE PUSH1 0x20 ADD DUP3 DUP1 SLOAD PUSH2 0x2C7 SWAP1 PUSH2 0x7CA JUMP JUMPDEST DUP1 ISZERO PUSH2 0x312 JUMPI DUP1 PUSH1 0x1F LT PUSH2 0x2E9 JUMPI PUSH2 0x100 DUP1 DUP4 SLOAD DIV MUL DUP4 MSTORE SWAP2 PUSH1 0x20 ADD SWAP2 PUSH2 0x312 JUMP JUMPDEST DUP3 ADD SWAP2 SWAP1 PUSH0 MSTORE PUSH1 0x20 PUSH0 KECCAK256 SWAP1 JUMPDEST DUP2 SLOAD DUP2 MSTORE SWAP1 PUSH1 0x1 ADD SWAP1 PUSH1 0x20 ADD DUP1 DUP4 GT PUSH2 0x2F5 JUMPI DUP3 SWAP1 SUB PUSH1 0x1F AND DUP3 ADD SWAP2 JUMPDEST POP POP POP POP POP SWAP3 POP DUP2 DUP1 SLOAD PUSH2 0x325 SWAP1 PUSH2 0x7CA JUMP JUMPDEST DUP1 PUSH1 0x1F ADD PUSH1 0x20 DUP1 SWAP2 DIV MUL PUSH1 0x20 ADD PUSH1 0x40 MLOAD SWAP1 DUP2 ADD PUSH1 0x40 MSTORE DUP1 SWAP3 SWAP2 SWAP1 DUP2 DUP2 MSTORE PUSH1 0x20 ADD DUP3 DUP1 SLOAD PUSH2 0x351 SWAP1 PUSH2 0x7CA JUMP JUMPDEST DUP1 ISZERO PUSH2 0x39C JUMPI DUP1 PUSH1 0x1F LT PUSH2 0x373 JUMPI PUSH2 0x100 DUP1 DUP4 SLOAD DIV MUL DUP4 MSTORE SWAP2 PUSH1 0x20 ADD SWAP2 PUSH2 0x39C JUMP JUMPDEST DUP3 ADD SWAP2 SWAP1 PUSH0 MSTORE PUSH1 0x20 PUSH0 KECCAK256 SWAP1 JUMPDEST DUP2 SLOAD DUP2 MSTORE SWAP1 PUSH1 0x1 ADD SWAP1 PUSH1 0x20 ADD DUP1 DUP4 GT PUSH2 0x37F JUMPI DUP3 SWAP1 SUB PUSH1 0x1F AND DUP3 ADD SWAP2 JUMPDEST POP POP POP POP POP SWAP2 POP SWAP4 POP SWAP4 POP SWAP4 POP POP SWAP2 SWAP4 SWAP1 SWAP3 POP JUMP JUMPDEST PUSH0 DUP1 PUSH1 0x40 MLOAD DUP1 PUSH1 0x60 ADD PUSH1 0x40 MSTORE DUP1 DUP7 DUP2 MSTORE PUSH1 0x20 ADD DUP6 DUP2 MSTORE PUSH1 0x20 ADD DUP5 DUP2 MSTORE POP SWAP1 DUP1 PUSH1 0x1 DUP2 SLOAD ADD DUP1 DUP3 SSTORE DUP1 SWAP2 POP POP PUSH1 0x1 SWAP1 SUB SWAP1 PUSH0 MSTORE PUSH1 0x20 PUSH0 KECCAK256 SWAP1 PUSH1 0x3 MUL ADD PUSH0 SWAP1 SWAP2 SWAP1 SWAP2 SWAP1 SWAP2 POP PUSH0 DUP3 ADD MLOAD DUP2 PUSH0 ADD SWAP1 DUP2 PUSH2 0x407 SWAP2 SWAP1 PUSH2 0xA2C JUMP JUMPDEST POP PUSH1 0x20 DUP3 ADD MLOAD DUP2 PUSH1 0x1 ADD SWAP1 DUP2 PUSH2 0x41D SWAP2 SWAP1 PUSH2 0xA2C JUMP JUMPDEST POP PUSH1 0x40 DUP3 ADD MLOAD DUP2 PUSH1 0x2 ADD SSTORE POP POP PUSH0 PUSH1 0x1 PUSH0 DUP1 SLOAD SWAP1 POP PUSH2 0x43C SWAP2 SWAP1 PUSH2 0xB28 JUMP JUMPDEST SWAP1 POP DUP1 PUSH32 0x5CEA50925077531F5597A1B77C02E7439FBA71A7FDD68704013F74AF66AF860 DUP7 DUP7 DUP7 PUSH1 0x40 MLOAD PUSH2 0x472 SWAP4 SWAP3 SWAP2 SWAP1 PUSH2 0x58D JUMP JUMPDEST PUSH1 0x40 MLOAD DUP1 SWAP2 SUB SWAP1 LOG2 DUP1 SWAP2 POP POP SWAP4 SWAP3 POP POP POP JUMP JUMPDEST PUSH0 PUSH1 0x40 MLOAD SWAP1 POP SWAP1 JUMP JUMPDEST PUSH0 DUP1 REVERT JUMPDEST PUSH0 DUP1 REVERT JUMPDEST PUSH0 DUP2 SWAP1 POP SWAP2 SWAP1 POP JUMP JUMPDEST PUSH2 0x4A8 DUP2 PUSH2 0x496 JUMP JUMPDEST DUP2 EQ PUSH2 0x4B2 JUMPI PUSH0 DUP1 REVERT JUMPDEST POP JUMP JUMPDEST PUSH0 DUP2 CALLDATALOAD SWAP1 POP PUSH2 0x4C3 DUP2 PUSH2 0x49F JUMP JUMPDEST SWAP3 SWAP2 POP POP JUMP JUMPDEST PUSH0 PUSH1 0x20 DUP3 DUP5 SUB SLT ISZERO PUSH2 0x4DE JUMPI PUSH2 0x4DD PUSH2 0x48E JUMP JUMPDEST JUMPDEST PUSH0 PUSH2 0x4EB DUP5 DUP3 DUP6 ADD PUSH2 0x4B5 JUMP JUMPDEST SWAP2 POP POP SWAP3 SWAP2 POP POP JUMP JUMPDEST PUSH0 DUP2 MLOAD SWAP1 POP SWAP2 SWAP1 POP JUMP JUMPDEST PUSH0 DUP3 DUP3 MSTORE PUSH1 0x20 DUP3 ADD SWAP1 POP SWAP3 SWAP2 POP POP JUMP JUMPDEST PUSH0 JUMPDEST DUP4 DUP2 LT ISZERO PUSH2 0x52B JUMPI DUP1 DUP3 ADD MLOAD DUP2 DUP5 ADD MSTORE PUSH1 0x20 DUP2 ADD SWAP1 POP PUSH2 0x510 JUMP JUMPDEST PUSH0 DUP5 DUP5 ADD MSTORE POP POP POP POP JUMP JUMPDEST PUSH0 PUSH1 0x1F NOT PUSH1 0x1F DUP4 ADD AND SWAP1 POP SWAP2 SWAP1 POP JUMP JUMPDEST PUSH0 PUSH2 0x550 DUP3 PUSH2 0x4F4 JUMP JUMPDEST PUSH2 0x55A DUP2 DUP6 PUSH2 0x4FE JUMP JUMPDEST SWAP4 POP PUSH2 0x56A DUP2 DUP6 PUSH1 0x20 DUP7 ADD PUSH2 0x50E JUMP JUMPDEST PUSH2 0x573 DUP2 PUSH2 0x536 JUMP JUMPDEST DUP5 ADD SWAP2 POP POP SWAP3 SWAP2 POP POP JUMP JUMPDEST PUSH2 0x587 DUP2 PUSH2 0x496 JUMP JUMPDEST DUP3 MSTORE POP POP JUMP JUMPDEST PUSH0 PUSH1 0x60 DUP3 ADD SWAP1 POP DUP2 DUP2 SUB PUSH0 DUP4 ADD MSTORE PUSH2 0x5A5 DUP2 DUP7 PUSH2 0x546 JUMP JUMPDEST SWAP1 POP DUP2 DUP2 SUB PUSH1 0x20 DUP4 ADD MSTORE PUSH2 0x5B9 DUP2 DUP6 PUSH2 0x546 JUMP JUMPDEST SWAP1 POP PUSH2 0x5C8 PUSH1 0x40 DUP4 ADD DUP5 PUSH2 0x57E JUMP JUMPDEST SWAP5 SWAP4 POP POP POP POP JUMP JUMPDEST PUSH0 DUP1 REVERT JUMPDEST PUSH0 DUP1 REVERT JUMPDEST PUSH32 0x4E487B7100000000000000000000000000000000000000000000000000000000 PUSH0 MSTORE PUSH1 0x41 PUSH1 0x4 MSTORE PUSH1 0x24 PUSH0 REVERT JUMPDEST PUSH2 0x60E DUP3 PUSH2 0x536 JUMP JUMPDEST DUP2 ADD DUP2 DUP2 LT PUSH8 0xFFFFFFFFFFFFFFFF DUP3 GT OR ISZERO PUSH2 0x62D JUMPI PUSH2 0x62C PUSH2 0x5D8 JUMP JUMPDEST JUMPDEST DUP1 PUSH1 0x40 MSTORE POP POP POP JUMP JUMPDEST PUSH0 PUSH2 0x63F PUSH2 0x485 JUMP JUMPDEST SWAP1 POP PUSH2 0x64B DUP3 DUP3 PUSH2 0x605 JUMP JUMPDEST SWAP2 SWAP1 POP JUMP JUMPDEST PUSH0 PUSH8 0xFFFFFFFFFFFFFFFF DUP3 GT ISZERO PUSH2 0x66A JUMPI PUSH2 0x669 PUSH2 0x5D8 JUMP JUMPDEST JUMPDEST PUSH2 0x673 DUP3 PUSH2 0x536 JUMP JUMPDEST SWAP1 POP PUSH1 0x20 DUP2 ADD SWAP1 POP SWAP2 SWAP1 POP JUMP JUMPDEST DUP3 DUP2 DUP4 CALLDATACOPY PUSH0 DUP4 DUP4 ADD MSTORE POP POP POP JUMP JUMPDEST PUSH0 PUSH2 0x6A0 PUSH2 0x69B DUP5 PUSH2 0x650 JUMP JUMPDEST PUSH2 0x636 JUMP JUMPDEST SWAP1 POP DUP3 DUP2 MSTORE PUSH1 0x20 DUP2 ADD DUP5 DUP5 DUP5 ADD GT ISZERO PUSH2 0x6BC JUMPI PUSH2 0x6BB PUSH2 0x5D4 JUMP JUMPDEST JUMPDEST PUSH2 0x6C7 DUP5 DUP3 DUP6 PUSH2 0x680 JUMP JUMPDEST POP SWAP4 SWAP3 POP POP POP JUMP JUMPDEST PUSH0 DUP3 PUSH1 0x1F DUP4 ADD SLT PUSH2 0x6E3 JUMPI PUSH2 0x6E2 PUSH2 0x5D0 JUMP JUMPDEST JUMPDEST DUP2 CALLDATALOAD PUSH2 0x6F3 DUP5 DUP3 PUSH1 0x20 DUP7 ADD PUSH2 0x68E JUMP JUMPDEST SWAP2 POP POP SWAP3 SWAP2 POP POP JUMP JUMPDEST PUSH0 DUP1 PUSH0 PUSH1 0x60 DUP5 DUP7 SUB SLT ISZERO PUSH2 0x713 JUMPI PUSH2 0x712 PUSH2 0x48E JUMP JUMPDEST JUMPDEST PUSH0 DUP5 ADD CALLDATALOAD PUSH8 0xFFFFFFFFFFFFFFFF DUP2 GT ISZERO PUSH2 0x730 JUMPI PUSH2 0x72F PUSH2 0x492 JUMP JUMPDEST JUMPDEST PUSH2 0x73C DUP7 DUP3 DUP8 ADD PUSH2 0x6CF JUMP JUMPDEST SWAP4 POP POP PUSH1 0x20 DUP5 ADD CALLDATALOAD PUSH8 0xFFFFFFFFFFFFFFFF DUP2 GT ISZERO PUSH2 0x75D JUMPI PUSH2 0x75C PUSH2 0x492 JUMP JUMPDEST JUMPDEST PUSH2 0x769 DUP7 DUP3 DUP8 ADD PUSH2 0x6CF JUMP JUMPDEST SWAP3 POP POP PUSH1 0x40 PUSH2 0x77A DUP7 DUP3 DUP8 ADD PUSH2 0x4B5 JUMP JUMPDEST SWAP2 POP POP SWAP3 POP SWAP3 POP SWAP3 JUMP JUMPDEST PUSH0 PUSH1 0x20 DUP3 ADD SWAP1 POP PUSH2 0x797 PUSH0 DUP4 ADD DUP5 PUSH2 0x57E JUMP JUMPDEST SWAP3 SWAP2 POP POP JUMP JUMPDEST PUSH32 0x4E487B7100000000000000000000000000000000000000000000000000000000 PUSH0 MSTORE PUSH1 0x22 PUSH1 0x4 MSTORE PUSH1 0x24 PUSH0 REVERT JUMPDEST PUSH0 PUSH1 0x2 DUP3 DIV SWAP1 POP PUSH1 0x1 DUP3 AND DUP1 PUSH2 0x7E1 JUMPI PUSH1 0x7F DUP3 AND SWAP2 POP JUMPDEST PUSH1 0x20 DUP3 LT DUP2 SUB PUSH2 0x7F4 JUMPI PUSH2 0x7F3 PUSH2 0x79D JUMP JUMPDEST JUMPDEST POP SWAP2 SWAP1 POP JUMP JUMPDEST PUSH32 0x496E76616C696420706F7374696E6720696E6465780000000000000000000000 PUSH0 DUP3 ADD MSTORE POP JUMP JUMPDEST PUSH0 PUSH2 0x82E PUSH1 0x15 DUP4 PUSH2 0x4FE JUMP JUMPDEST SWAP2 POP PUSH2 0x839 DUP3 PUSH2 0x7FA JUMP JUMPDEST PUSH1 0x20 DUP3 ADD SWAP1 POP SWAP2 SWAP1 POP JUMP JUMPDEST PUSH0 PUSH1 0x20 DUP3 ADD SWAP1 POP DUP2 DUP2 SUB PUSH0 DUP4 ADD MSTORE PUSH2 0x85B DUP2 PUSH2 0x822 JUMP JUMPDEST SWAP1 POP SWAP2 SWAP1 POP JUMP JUMPDEST PUSH32 0x4E487B7100000000000000000000000000000000000000000000000000000000 PUSH0 MSTORE PUSH1 0x32 PUSH1 0x4 MSTORE PUSH1 0x24 PUSH0 REVERT JUMPDEST PUSH0 DUP2 SWAP1 POP DUP2 PUSH0 MSTORE PUSH1 0x20 PUSH0 KECCAK256 SWAP1 POP SWAP2 SWAP1 POP JUMP JUMPDEST PUSH0 PUSH1 0x20 PUSH1 0x1F DUP4 ADD DIV SWAP1 POP SWAP2 SWAP1 POP JUMP JUMPDEST PUSH0 DUP3 DUP3 SHL SWAP1 POP SWAP3 SWAP2 POP POP JUMP JUMPDEST PUSH0 PUSH1 0x8 DUP4 MUL PUSH2 0x8EB PUSH32 0xFFFFFFFFFFFFFFFFFFFFFFFFFFFFFFFFFFFFFFFFFFFFFFFFFFFFFFFFFFFFFFFF DUP3 PUSH2 0x8B0 JUMP JUMPDEST PUSH2 0x8F5 DUP7 DUP4 PUSH2 0x8B0 JUMP JUMPDEST SWAP6 POP DUP1 NOT DUP5 AND SWAP4 POP DUP1 DUP7 AND DUP5 OR SWAP3 POP POP POP SWAP4 SWAP3 POP POP POP JUMP JUMPDEST PUSH0 DUP2 SWAP1 POP SWAP2 SWAP1 POP JUMP JUMPDEST PUSH0 PUSH2 0x930 PUSH2 0x92B PUSH2 0x926 DUP5 PUSH2 0x496 JUMP JUMPDEST PUSH2 0x90D JUMP JUMPDEST PUSH2 0x496 JUMP JUMPDEST SWAP1 POP SWAP2 SWAP1 POP JUMP JUMPDEST PUSH0 DUP2 SWAP1 POP SWAP2 SWAP1 POP JUMP JUMPDEST PUSH2 0x949 DUP4 PUSH2 0x916 JUMP JUMPDEST PUSH2 0x95D PUSH2 0x955 DUP3 PUSH2 0x937 JUMP JUMPDEST DUP5 DUP5 SLOAD PUSH2 0x8BC JUMP JUMPDEST DUP3 SSTORE POP POP POP POP JUMP JUMPDEST PUSH0 SWAP1 JUMP JUMPDEST PUSH2 0x971 PUSH2 0x965 JUMP JUMPDEST PUSH2 0x97C DUP2 DUP5 DUP5 PUSH2 0x940 JUMP JUMPDEST POP POP POP JUMP JUMPDEST JUMPDEST DUP2 DUP2 LT ISZERO PUSH2 0x99F JUMPI PUSH2 0x994 PUSH0 DUP3 PUSH2 0x969 JUMP JUMPDEST PUSH1 0x1 DUP2 ADD SWAP1 POP PUSH2 0x982 JUMP JUMPDEST POP POP JUMP JUMPDEST PUSH1 0x1F DUP3 GT ISZERO PUSH2 0x9E4 JUMPI PUSH2 0x9B5 DUP2 PUSH2 0x88F JUMP JUMPDEST PUSH2 0x9BE DUP5 PUSH2 0x8A1 JUMP JUMPDEST DUP2 ADD PUSH1 0x20 DUP6 LT ISZERO PUSH2 0x9CD JUMPI DUP2 SWAP1 POP JUMPDEST PUSH2 0x9E1 PUSH2 0x9D9 DUP6 PUSH2 0x8A1 JUMP JUMPDEST DUP4 ADD DUP3 PUSH2 0x981 JUMP JUMPDEST POP POP JUMPDEST POP POP POP JUMP JUMPDEST PUSH0 DUP3 DUP3 SHR SWAP1 POP SWAP3 SWAP2 POP POP JUMP JUMPDEST PUSH0 PUSH2 0xA04 PUSH0 NOT DUP5 PUSH1 0x8 MUL PUSH2 0x9E9 JUMP JUMPDEST NOT DUP1 DUP4 AND SWAP2 POP POP SWAP3 SWAP2 POP POP JUMP JUMPDEST PUSH0 PUSH2 0xA1C DUP4 DUP4 PUSH2 0x9F5 JUMP JUMPDEST SWAP2 POP DUP3 PUSH1 0x2 MUL DUP3 OR SWAP1 POP SWAP3 SWAP2 POP POP JUMP JUMPDEST PUSH2 0xA35 DUP3 PUSH2 0x4F4 JUMP JUMPDEST PUSH8 0xFFFFFFFFFFFFFFFF DUP2 GT ISZERO PUSH2 0xA4E JUMPI PUSH2 0xA4D PUSH2 0x5D8 JUMP JUMPDEST JUMPDEST PUSH2 0xA58 DUP3 SLOAD PUSH2 0x7CA JUMP JUMPDEST PUSH2 0xA63 DUP3 DUP3 DUP6 PUSH2 0x9A3 JUMP JUMPDEST PUSH0 PUSH1 0x20 SWAP1 POP PUSH1 0x1F DUP4 GT PUSH1 0x1 DUP2 EQ PUSH2 0xA94 JUMPI PUSH0 DUP5 ISZERO PUSH2 0xA82 JUMPI DUP3 DUP8 ADD MLOAD SWAP1 POP JUMPDEST PUSH2 0xA8C DUP6 DUP3 PUSH2 0xA11 JUMP JUMPDEST DUP7 SSTORE POP PUSH2 0xAF3 JUMP JUMPDEST PUSH1 0x1F NOT DUP5 AND PUSH2 0xAA2 DUP7 PUSH2 0x88F JUMP JUMPDEST PUSH0 JUMPDEST DUP3 DUP2 LT ISZERO PUSH2 0xAC9 JUMPI DUP5 DUP10 ADD MLOAD DUP3 SSTORE PUSH1 0x1 DUP3 ADD SWAP2 POP PUSH1 0x20 DUP6 ADD SWAP5 POP PUSH1 0x20 DUP2 ADD SWAP1 POP PUSH2 0xAA4 JUMP JUMPDEST DUP7 DUP4 LT ISZERO PUSH2 0xAE6 JUMPI DUP5 DUP10 ADD MLOAD PUSH2 0xAE2 PUSH1 0x1F DUP10 AND DUP3 PUSH2 0x9F5 JUMP JUMPDEST DUP4 SSTORE POP JUMPDEST PUSH1 0x1 PUSH1 0x2 DUP9 MUL ADD DUP9 SSTORE POP POP POP JUMPDEST POP POP POP POP POP POP JUMP JUMPDEST PUSH32 0x4E487B7100000000000000000000000000000000000000000000000000000000 PUSH0 MSTORE PUSH1 0x11 PUSH1 0x4 MSTORE PUSH1 0x24 PUSH0 REVERT JUMPDEST PUSH0 PUSH2 0xB32 DUP3 PUSH2 0x496 JUMP JUMPDEST SWAP2 POP PUSH2 0xB3D DUP4 PUSH2 0x496 JUMP JUMPDEST SWAP3 POP DUP3 DUP3 SUB SWAP1 POP DUP2 DUP2 GT ISZERO PUSH2 0xB55 JUMPI PUSH2 0xB54 PUSH2 0xAFB JUMP JUMPDEST JUMPDEST SWAP3 SWAP2 POP POP JUMP INVALID LOG2 PUSH5 0x6970667358 0x22 SLT KECCAK256 PUSH32 0xE7D87B5FE668EBD984AAD7031F22C6823440B232BDB6ABE28A43B42D4AA0D964 PUSH20 0x6F6C634300081600330000000000000000000000 "
		},
		"gasEstimates": {
			"creation": {
				"codeDepositCost": "592200",
				"executionCost": "623",
				"totalCost": "592823"
			},
			"external": {
				"addPosting(string,string,uint256)": "infinite",
				"getPosting(uint256)": "infinite",
				"postings(uint256)": "infinite"
			}
		},
		"methodIdentifiers": {
			"addPosting(string,string,uint256)": "d68a97c1",
			"getPosting(uint256)": "3d746f78",
			"postings(uint256)": "363bc427"
		}
	},
	"abi": [
		{
			"anonymous": false,
			"inputs": [
				{
					"indexed": true,
					"internalType": "uint256",
					"name": "index",
					"type": "uint256"
				},
				{
					"indexed": false,
					"internalType": "string",
					"name": "name",
					"type": "string"
				},
				{
					"indexed": false,
					"internalType": "string",
					"name": "hederaAccountId",
					"type": "string"
				},
				{
					"indexed": false,
					"internalType": "uint256",
					"name": "price",
					"type": "uint256"
				}
			],
			"name": "PostingAdded",
			"type": "event"
		},
		{
			"inputs": [
				{
					"internalType": "string",
					"name": "_name",
					"type": "string"
				},
				{
					"internalType": "string",
					"name": "_hederaAccountId",
					"type": "string"
				},
				{
					"internalType": "uint256",
					"name": "_price",
					"type": "uint256"
				}
			],
			"name": "addPosting",
			"outputs": [
				{
					"internalType": "uint256",
					"name": "",
					"type": "uint256"
				}
			],
			"stateMutability": "nonpayable",
			"type": "function"
		},
		{
			"inputs": [
				{
					"internalType": "uint256",
					"name": "_index",
					"type": "uint256"
				}
			],
			"name": "getPosting",
			"outputs": [
				{
					"internalType": "string",
					"name": "name",
					"type": "string"
				},
				{
					"internalType": "string",
					"name": "hederaAccountId",
					"type": "string"
				},
				{
					"internalType": "uint256",
					"name": "price",
					"type": "uint256"
				}
			],
			"stateMutability": "view",
			"type": "function"
		},
		{
			"inputs": [
				{
					"internalType": "uint256",
					"name": "",
					"type": "uint256"
				}
			],
			"name": "postings",
			"outputs": [
				{
					"internalType": "string",
					"name": "name",
					"type": "string"
				},
				{
					"internalType": "string",
					"name": "hederaAccountId",
					"type": "string"
				},
				{
					"internalType": "uint256",
					"name": "price",
					"type": "uint256"
				}
			],
			"stateMutability": "view",
			"type": "function"
		}
	]
}