{
	"data": {
		"bytecode": {
			"linkReferences": {},
			"object": "608060405234801561000f575f80fd5b506108378061001d5f395ff3fe608060405234801561000f575f80fd5b506004361061003f575f3560e01c80631d4b0c0914610043578063618b220f14610061578063c47f002714610091575b5f80fd5b61004b6100ad565b60405161005891906101fb565b60405180910390f35b61007b6004803603810190610076919061025b565b6100b8565b6040516100889190610310565b60405180910390f35b6100ab60048036038101906100a6919061045c565b6101af565b005b5f8080549050905090565b60605f805490508260ff1610610103576040517f08c379a00000000000000000000000000000000000000000000000000000000081526004016100fa906104ed565b60405180910390fd5b5f8260ff16815481106101195761011861050b565b5b905f5260205f2001805461012c90610565565b80601f016020809104026020016040519081016040528092919081815260200182805461015890610565565b80156101a35780601f1061017a576101008083540402835291602001916101a3565b820191905f5260205f20905b81548152906001019060200180831161018657829003601f168201915b50505050509050919050565b5f81908060018154018082558091505060019003905f5260205f20015f9091909190915090816101df9190610732565b5050565b5f819050919050565b6101f5816101e3565b82525050565b5f60208201905061020e5f8301846101ec565b92915050565b5f604051905090565b5f80fd5b5f80fd5b5f60ff82169050919050565b61023a81610225565b8114610244575f80fd5b50565b5f8135905061025581610231565b92915050565b5f602082840312156102705761026f61021d565b5b5f61027d84828501610247565b91505092915050565b5f81519050919050565b5f82825260208201905092915050565b5f5b838110156102bd5780820151818401526020810190506102a2565b5f8484015250505050565b5f601f19601f8301169050919050565b5f6102e282610286565b6102ec8185610290565b93506102fc8185602086016102a0565b610305816102c8565b840191505092915050565b5f6020820190508181035f83015261032881846102d8565b905092915050565b5f80fd5b5f80fd5b7f4e487b71000000000000000000000000000000000000000000000000000000005f52604160045260245ffd5b61036e826102c8565b810181811067ffffffffffffffff8211171561038d5761038c610338565b5b80604052505050565b5f61039f610214565b90506103ab8282610365565b919050565b5f67ffffffffffffffff8211156103ca576103c9610338565b5b6103d3826102c8565b9050602081019050919050565b828183375f83830152505050565b5f6104006103fb846103b0565b610396565b90508281526020810184848401111561041c5761041b610334565b5b6104278482856103e0565b509392505050565b5f82601f83011261044357610442610330565b5b81356104538482602086016103ee565b91505092915050565b5f602082840312156104715761047061021d565b5b5f82013567ffffffffffffffff81111561048e5761048d610221565b5b61049a8482850161042f565b91505092915050565b7f496e646578206f7574206f6620626f756e6473000000000000000000000000005f82015250565b5f6104d7601383610290565b91506104e2826104a3565b602082019050919050565b5f6020820190508181035f830152610504816104cb565b9050919050565b7f4e487b71000000000000000000000000000000000000000000000000000000005f52603260045260245ffd5b7f4e487b71000000000000000000000000000000000000000000000000000000005f52602260045260245ffd5b5f600282049050600182168061057c57607f821691505b60208210810361058f5761058e610538565b5b50919050565b5f819050815f5260205f209050919050565b5f6020601f8301049050919050565b5f82821b905092915050565b5f600883026105f17fffffffffffffffffffffffffffffffffffffffffffffffffffffffffffffffff826105b6565b6105fb86836105b6565b95508019841693508086168417925050509392505050565b5f819050919050565b5f61063661063161062c846101e3565b610613565b6101e3565b9050919050565b5f819050919050565b61064f8361061c565b61066361065b8261063d565b8484546105c2565b825550505050565b5f90565b61067761066b565b610682818484610646565b505050565b5b818110156106a55761069a5f8261066f565b600181019050610688565b5050565b601f8211156106ea576106bb81610595565b6106c4846105a7565b810160208510156106d3578190505b6106e76106df856105a7565b830182610687565b50505b505050565b5f82821c905092915050565b5f61070a5f19846008026106ef565b1980831691505092915050565b5f61072283836106fb565b9150826002028217905092915050565b61073b82610286565b67ffffffffffffffff81111561075457610753610338565b5b61075e8254610565565b6107698282856106a9565b5f60209050601f83116001811461079a575f8415610788578287015190505b6107928582610717565b8655506107f9565b601f1984166107a886610595565b5f5b828110156107cf578489015182556001820191506020850194506020810190506107aa565b868310156107ec57848901516107e8601f8916826106fb565b8355505b6001600288020188555050505b50505050505056fea264697066735822122000d5c9789513a363b918f840ea59a0d72ab4e4d2235207141d9a1f49644cd8e464736f6c63430008160033",
			"opcodes": "PUSH1 0x80 PUSH1 0x40 MSTORE CALLVALUE DUP1 ISZERO PUSH2 0xF JUMPI PUSH0 DUP1 REVERT JUMPDEST POP PUSH2 0x837 DUP1 PUSH2 0x1D PUSH0 CODECOPY PUSH0 RETURN INVALID PUSH1 0x80 PUSH1 0x40 MSTORE CALLVALUE DUP1 ISZERO PUSH2 0xF JUMPI PUSH0 DUP1 REVERT JUMPDEST POP PUSH1 0x4 CALLDATASIZE LT PUSH2 0x3F JUMPI PUSH0 CALLDATALOAD PUSH1 0xE0 SHR DUP1 PUSH4 0x1D4B0C09 EQ PUSH2 0x43 JUMPI DUP1 PUSH4 0x618B220F EQ PUSH2 0x61 JUMPI DUP1 PUSH4 0xC47F0027 EQ PUSH2 0x91 JUMPI JUMPDEST PUSH0 DUP1 REVERT JUMPDEST PUSH2 0x4B PUSH2 0xAD JUMP JUMPDEST PUSH1 0x40 MLOAD PUSH2 0x58 SWAP2 SWAP1 PUSH2 0x1FB JUMP JUMPDEST PUSH1 0x40 MLOAD DUP1 SWAP2 SUB SWAP1 RETURN JUMPDEST PUSH2 0x7B PUSH1 0x4 DUP1 CALLDATASIZE SUB DUP2 ADD SWAP1 PUSH2 0x76 SWAP2 SWAP1 PUSH2 0x25B JUMP JUMPDEST PUSH2 0xB8 JUMP JUMPDEST PUSH1 0x40 MLOAD PUSH2 0x88 SWAP2 SWAP1 PUSH2 0x310 JUMP JUMPDEST PUSH1 0x40 MLOAD DUP1 SWAP2 SUB SWAP1 RETURN JUMPDEST PUSH2 0xAB PUSH1 0x4 DUP1 CALLDATASIZE SUB DUP2 ADD SWAP1 PUSH2 0xA6 SWAP2 SWAP1 PUSH2 0x45C JUMP JUMPDEST PUSH2 0x1AF JUMP JUMPDEST STOP JUMPDEST PUSH0 DUP1 DUP1 SLOAD SWAP1 POP SWAP1 POP SWAP1 JUMP JUMPDEST PUSH1 0x60 PUSH0 DUP1 SLOAD SWAP1 POP DUP3 PUSH1 0xFF AND LT PUSH2 0x103 JUMPI PUSH1 0x40 MLOAD PUSH32 0x8C379A000000000000000000000000000000000000000000000000000000000 DUP2 MSTORE PUSH1 0x4 ADD PUSH2 0xFA SWAP1 PUSH2 0x4ED JUMP JUMPDEST PUSH1 0x40 MLOAD DUP1 SWAP2 SUB SWAP1 REVERT JUMPDEST PUSH0 DUP3 PUSH1 0xFF AND DUP2 SLOAD DUP2 LT PUSH2 0x119 JUMPI PUSH2 0x118 PUSH2 0x50B JUMP JUMPDEST JUMPDEST SWAP1 PUSH0 MSTORE PUSH1 0x20 PUSH0 KECCAK256 ADD DUP1 SLOAD PUSH2 0x12C SWAP1 PUSH2 0x565 JUMP JUMPDEST DUP1 PUSH1 0x1F ADD PUSH1 0x20 DUP1 SWAP2 DIV MUL PUSH1 0x20 ADD PUSH1 0x40 MLOAD SWAP1 DUP2 ADD PUSH1 0x40 MSTORE DUP1 SWAP3 SWAP2 SWAP1 DUP2 DUP2 MSTORE PUSH1 0x20 ADD DUP3 DUP1 SLOAD PUSH2 0x158 SWAP1 PUSH2 0x565 JUMP JUMPDEST DUP1 ISZERO PUSH2 0x1A3 JUMPI DUP1 PUSH1 0x1F LT PUSH2 0x17A JUMPI PUSH2 0x100 DUP1 DUP4 SLOAD DIV MUL DUP4 MSTORE SWAP2 PUSH1 0x20 ADD SWAP2 PUSH2 0x1A3 JUMP JUMPDEST DUP3 ADD SWAP2 SWAP1 PUSH0 MSTORE PUSH1 0x20 PUSH0 KECCAK256 SWAP1 JUMPDEST DUP2 SLOAD DUP2 MSTORE SWAP1 PUSH1 0x1 ADD SWAP1 PUSH1 0x20 ADD DUP1 DUP4 GT PUSH2 0x186 JUMPI DUP3 SWAP1 SUB PUSH1 0x1F AND DUP3 ADD SWAP2 JUMPDEST POP POP POP POP POP SWAP1 POP SWAP2 SWAP1 POP JUMP JUMPDEST PUSH0 DUP2 SWAP1 DUP1 PUSH1 0x1 DUP2 SLOAD ADD DUP1 DUP3 SSTORE DUP1 SWAP2 POP POP PUSH1 0x1 SWAP1 SUB SWAP1 PUSH0 MSTORE PUSH1 0x20 PUSH0 KECCAK256 ADD PUSH0 SWAP1 SWAP2 SWAP1 SWAP2 SWAP1 SWAP2 POP SWAP1 DUP2 PUSH2 0x1DF SWAP2 SWAP1 PUSH2 0x732 JUMP JUMPDEST POP POP JUMP JUMPDEST PUSH0 DUP2 SWAP1 POP SWAP2 SWAP1 POP JUMP JUMPDEST PUSH2 0x1F5 DUP2 PUSH2 0x1E3 JUMP JUMPDEST DUP3 MSTORE POP POP JUMP JUMPDEST PUSH0 PUSH1 0x20 DUP3 ADD SWAP1 POP PUSH2 0x20E PUSH0 DUP4 ADD DUP5 PUSH2 0x1EC JUMP JUMPDEST SWAP3 SWAP2 POP POP JUMP JUMPDEST PUSH0 PUSH1 0x40 MLOAD SWAP1 POP SWAP1 JUMP JUMPDEST PUSH0 DUP1 REVERT JUMPDEST PUSH0 DUP1 REVERT JUMPDEST PUSH0 PUSH1 0xFF DUP3 AND SWAP1 POP SWAP2 SWAP1 POP JUMP JUMPDEST PUSH2 0x23A DUP2 PUSH2 0x225 JUMP JUMPDEST DUP2 EQ PUSH2 0x244 JUMPI PUSH0 DUP1 REVERT JUMPDEST POP JUMP JUMPDEST PUSH0 DUP2 CALLDATALOAD SWAP1 POP PUSH2 0x255 DUP2 PUSH2 0x231 JUMP JUMPDEST SWAP3 SWAP2 POP POP JUMP JUMPDEST PUSH0 PUSH1 0x20 DUP3 DUP5 SUB SLT ISZERO PUSH2 0x270 JUMPI PUSH2 0x26F PUSH2 0x21D JUMP JUMPDEST JUMPDEST PUSH0 PUSH2 0x27D DUP5 DUP3 DUP6 ADD PUSH2 0x247 JUMP JUMPDEST SWAP2 POP POP SWAP3 SWAP2 POP POP JUMP JUMPDEST PUSH0 DUP2 MLOAD SWAP1 POP SWAP2 SWAP1 POP JUMP JUMPDEST PUSH0 DUP3 DUP3 MSTORE PUSH1 0x20 DUP3 ADD SWAP1 POP SWAP3 SWAP2 POP POP JUMP JUMPDEST PUSH0 JUMPDEST DUP4 DUP2 LT ISZERO PUSH2 0x2BD JUMPI DUP1 DUP3 ADD MLOAD DUP2 DUP5 ADD MSTORE PUSH1 0x20 DUP2 ADD SWAP1 POP PUSH2 0x2A2 JUMP JUMPDEST PUSH0 DUP5 DUP5 ADD MSTORE POP POP POP POP JUMP JUMPDEST PUSH0 PUSH1 0x1F NOT PUSH1 0x1F DUP4 ADD AND SWAP1 POP SWAP2 SWAP1 POP JUMP JUMPDEST PUSH0 PUSH2 0x2E2 DUP3 PUSH2 0x286 JUMP JUMPDEST PUSH2 0x2EC DUP2 DUP6 PUSH2 0x290 JUMP JUMPDEST SWAP4 POP PUSH2 0x2FC DUP2 DUP6 PUSH1 0x20 DUP7 ADD PUSH2 0x2A0 JUMP JUMPDEST PUSH2 0x305 DUP2 PUSH2 0x2C8 JUMP JUMPDEST DUP5 ADD SWAP2 POP POP SWAP3 SWAP2 POP POP JUMP JUMPDEST PUSH0 PUSH1 0x20 DUP3 ADD SWAP1 POP DUP2 DUP2 SUB PUSH0 DUP4 ADD MSTORE PUSH2 0x328 DUP2 DUP5 PUSH2 0x2D8 JUMP JUMPDEST SWAP1 POP SWAP3 SWAP2 POP POP JUMP JUMPDEST PUSH0 DUP1 REVERT JUMPDEST PUSH0 DUP1 REVERT JUMPDEST PUSH32 0x4E487B7100000000000000000000000000000000000000000000000000000000 PUSH0 MSTORE PUSH1 0x41 PUSH1 0x4 MSTORE PUSH1 0x24 PUSH0 REVERT JUMPDEST PUSH2 0x36E DUP3 PUSH2 0x2C8 JUMP JUMPDEST DUP2 ADD DUP2 DUP2 LT PUSH8 0xFFFFFFFFFFFFFFFF DUP3 GT OR ISZERO PUSH2 0x38D JUMPI PUSH2 0x38C PUSH2 0x338 JUMP JUMPDEST JUMPDEST DUP1 PUSH1 0x40 MSTORE POP POP POP JUMP JUMPDEST PUSH0 PUSH2 0x39F PUSH2 0x214 JUMP JUMPDEST SWAP1 POP PUSH2 0x3AB DUP3 DUP3 PUSH2 0x365 JUMP JUMPDEST SWAP2 SWAP1 POP JUMP JUMPDEST PUSH0 PUSH8 0xFFFFFFFFFFFFFFFF DUP3 GT ISZERO PUSH2 0x3CA JUMPI PUSH2 0x3C9 PUSH2 0x338 JUMP JUMPDEST JUMPDEST PUSH2 0x3D3 DUP3 PUSH2 0x2C8 JUMP JUMPDEST SWAP1 POP PUSH1 0x20 DUP2 ADD SWAP1 POP SWAP2 SWAP1 POP JUMP JUMPDEST DUP3 DUP2 DUP4 CALLDATACOPY PUSH0 DUP4 DUP4 ADD MSTORE POP POP POP JUMP JUMPDEST PUSH0 PUSH2 0x400 PUSH2 0x3FB DUP5 PUSH2 0x3B0 JUMP JUMPDEST PUSH2 0x396 JUMP JUMPDEST SWAP1 POP DUP3 DUP2 MSTORE PUSH1 0x20 DUP2 ADD DUP5 DUP5 DUP5 ADD GT ISZERO PUSH2 0x41C JUMPI PUSH2 0x41B PUSH2 0x334 JUMP JUMPDEST JUMPDEST PUSH2 0x427 DUP5 DUP3 DUP6 PUSH2 0x3E0 JUMP JUMPDEST POP SWAP4 SWAP3 POP POP POP JUMP JUMPDEST PUSH0 DUP3 PUSH1 0x1F DUP4 ADD SLT PUSH2 0x443 JUMPI PUSH2 0x442 PUSH2 0x330 JUMP JUMPDEST JUMPDEST DUP2 CALLDATALOAD PUSH2 0x453 DUP5 DUP3 PUSH1 0x20 DUP7 ADD PUSH2 0x3EE JUMP JUMPDEST SWAP2 POP POP SWAP3 SWAP2 POP POP JUMP JUMPDEST PUSH0 PUSH1 0x20 DUP3 DUP5 SUB SLT ISZERO PUSH2 0x471 JUMPI PUSH2 0x470 PUSH2 0x21D JUMP JUMPDEST JUMPDEST PUSH0 DUP3 ADD CALLDATALOAD PUSH8 0xFFFFFFFFFFFFFFFF DUP2 GT ISZERO PUSH2 0x48E JUMPI PUSH2 0x48D PUSH2 0x221 JUMP JUMPDEST JUMPDEST PUSH2 0x49A DUP5 DUP3 DUP6 ADD PUSH2 0x42F JUMP JUMPDEST SWAP2 POP POP SWAP3 SWAP2 POP POP JUMP JUMPDEST PUSH32 0x496E646578206F7574206F6620626F756E647300000000000000000000000000 PUSH0 DUP3 ADD MSTORE POP JUMP JUMPDEST PUSH0 PUSH2 0x4D7 PUSH1 0x13 DUP4 PUSH2 0x290 JUMP JUMPDEST SWAP2 POP PUSH2 0x4E2 DUP3 PUSH2 0x4A3 JUMP JUMPDEST PUSH1 0x20 DUP3 ADD SWAP1 POP SWAP2 SWAP1 POP JUMP JUMPDEST PUSH0 PUSH1 0x20 DUP3 ADD SWAP1 POP DUP2 DUP2 SUB PUSH0 DUP4 ADD MSTORE PUSH2 0x504 DUP2 PUSH2 0x4CB JUMP JUMPDEST SWAP1 POP SWAP2 SWAP1 POP JUMP JUMPDEST PUSH32 0x4E487B7100000000000000000000000000000000000000000000000000000000 PUSH0 MSTORE PUSH1 0x32 PUSH1 0x4 MSTORE PUSH1 0x24 PUSH0 REVERT JUMPDEST PUSH32 0x4E487B7100000000000000000000000000000000000000000000000000000000 PUSH0 MSTORE PUSH1 0x22 PUSH1 0x4 MSTORE PUSH1 0x24 PUSH0 REVERT JUMPDEST PUSH0 PUSH1 0x2 DUP3 DIV SWAP1 POP PUSH1 0x1 DUP3 AND DUP1 PUSH2 0x57C JUMPI PUSH1 0x7F DUP3 AND SWAP2 POP JUMPDEST PUSH1 0x20 DUP3 LT DUP2 SUB PUSH2 0x58F JUMPI PUSH2 0x58E PUSH2 0x538 JUMP JUMPDEST JUMPDEST POP SWAP2 SWAP1 POP JUMP JUMPDEST PUSH0 DUP2 SWAP1 POP DUP2 PUSH0 MSTORE PUSH1 0x20 PUSH0 KECCAK256 SWAP1 POP SWAP2 SWAP1 POP JUMP JUMPDEST PUSH0 PUSH1 0x20 PUSH1 0x1F DUP4 ADD DIV SWAP1 POP SWAP2 SWAP1 POP JUMP JUMPDEST PUSH0 DUP3 DUP3 SHL SWAP1 POP SWAP3 SWAP2 POP POP JUMP JUMPDEST PUSH0 PUSH1 0x8 DUP4 MUL PUSH2 0x5F1 PUSH32 0xFFFFFFFFFFFFFFFFFFFFFFFFFFFFFFFFFFFFFFFFFFFFFFFFFFFFFFFFFFFFFFFF DUP3 PUSH2 0x5B6 JUMP JUMPDEST PUSH2 0x5FB DUP7 DUP4 PUSH2 0x5B6 JUMP JUMPDEST SWAP6 POP DUP1 NOT DUP5 AND SWAP4 POP DUP1 DUP7 AND DUP5 OR SWAP3 POP POP POP SWAP4 SWAP3 POP POP POP JUMP JUMPDEST PUSH0 DUP2 SWAP1 POP SWAP2 SWAP1 POP JUMP JUMPDEST PUSH0 PUSH2 0x636 PUSH2 0x631 PUSH2 0x62C DUP5 PUSH2 0x1E3 JUMP JUMPDEST PUSH2 0x613 JUMP JUMPDEST PUSH2 0x1E3 JUMP JUMPDEST SWAP1 POP SWAP2 SWAP1 POP JUMP JUMPDEST PUSH0 DUP2 SWAP1 POP SWAP2 SWAP1 POP JUMP JUMPDEST PUSH2 0x64F DUP4 PUSH2 0x61C JUMP JUMPDEST PUSH2 0x663 PUSH2 0x65B DUP3 PUSH2 0x63D JUMP JUMPDEST DUP5 DUP5 SLOAD PUSH2 0x5C2 JUMP JUMPDEST DUP3 SSTORE POP POP POP POP JUMP JUMPDEST PUSH0 SWAP1 JUMP JUMPDEST PUSH2 0x677 PUSH2 0x66B JUMP JUMPDEST PUSH2 0x682 DUP2 DUP5 DUP5 PUSH2 0x646 JUMP JUMPDEST POP POP POP JUMP JUMPDEST JUMPDEST DUP2 DUP2 LT ISZERO PUSH2 0x6A5 JUMPI PUSH2 0x69A PUSH0 DUP3 PUSH2 0x66F JUMP JUMPDEST PUSH1 0x1 DUP2 ADD SWAP1 POP PUSH2 0x688 JUMP JUMPDEST POP POP JUMP JUMPDEST PUSH1 0x1F DUP3 GT ISZERO PUSH2 0x6EA JUMPI PUSH2 0x6BB DUP2 PUSH2 0x595 JUMP JUMPDEST PUSH2 0x6C4 DUP5 PUSH2 0x5A7 JUMP JUMPDEST DUP2 ADD PUSH1 0x20 DUP6 LT ISZERO PUSH2 0x6D3 JUMPI DUP2 SWAP1 POP JUMPDEST PUSH2 0x6E7 PUSH2 0x6DF DUP6 PUSH2 0x5A7 JUMP JUMPDEST DUP4 ADD DUP3 PUSH2 0x687 JUMP JUMPDEST POP POP JUMPDEST POP POP POP JUMP JUMPDEST PUSH0 DUP3 DUP3 SHR SWAP1 POP SWAP3 SWAP2 POP POP JUMP JUMPDEST PUSH0 PUSH2 0x70A PUSH0 NOT DUP5 PUSH1 0x8 MUL PUSH2 0x6EF JUMP JUMPDEST NOT DUP1 DUP4 AND SWAP2 POP POP SWAP3 SWAP2 POP POP JUMP JUMPDEST PUSH0 PUSH2 0x722 DUP4 DUP4 PUSH2 0x6FB JUMP JUMPDEST SWAP2 POP DUP3 PUSH1 0x2 MUL DUP3 OR SWAP1 POP SWAP3 SWAP2 POP POP JUMP JUMPDEST PUSH2 0x73B DUP3 PUSH2 0x286 JUMP JUMPDEST PUSH8 0xFFFFFFFFFFFFFFFF DUP2 GT ISZERO PUSH2 0x754 JUMPI PUSH2 0x753 PUSH2 0x338 JUMP JUMPDEST JUMPDEST PUSH2 0x75E DUP3 SLOAD PUSH2 0x565 JUMP JUMPDEST PUSH2 0x769 DUP3 DUP3 DUP6 PUSH2 0x6A9 JUMP JUMPDEST PUSH0 PUSH1 0x20 SWAP1 POP PUSH1 0x1F DUP4 GT PUSH1 0x1 DUP2 EQ PUSH2 0x79A JUMPI PUSH0 DUP5 ISZERO PUSH2 0x788 JUMPI DUP3 DUP8 ADD MLOAD SWAP1 POP JUMPDEST PUSH2 0x792 DUP6 DUP3 PUSH2 0x717 JUMP JUMPDEST DUP7 SSTORE POP PUSH2 0x7F9 JUMP JUMPDEST PUSH1 0x1F NOT DUP5 AND PUSH2 0x7A8 DUP7 PUSH2 0x595 JUMP JUMPDEST PUSH0 JUMPDEST DUP3 DUP2 LT ISZERO PUSH2 0x7CF JUMPI DUP5 DUP10 ADD MLOAD DUP3 SSTORE PUSH1 0x1 DUP3 ADD SWAP2 POP PUSH1 0x20 DUP6 ADD SWAP5 POP PUSH1 0x20 DUP2 ADD SWAP1 POP PUSH2 0x7AA JUMP JUMPDEST DUP7 DUP4 LT ISZERO PUSH2 0x7EC JUMPI DUP5 DUP10 ADD MLOAD PUSH2 0x7E8 PUSH1 0x1F DUP10 AND DUP3 PUSH2 0x6FB JUMP JUMPDEST DUP4 SSTORE POP JUMPDEST PUSH1 0x1 PUSH1 0x2 DUP9 MUL ADD DUP9 SSTORE POP POP POP JUMPDEST POP POP POP POP POP POP JUMP INVALID LOG2 PUSH5 0x6970667358 0x22 SLT KECCAK256 STOP 0xD5 0xC9 PUSH25 0x9513A363B918F840EA59A0D72AB4E4D2235207141D9A1F4964 0x4C 0xD8 0xE4 PUSH5 0x736F6C6343 STOP ADDMOD AND STOP CALLER "
		},
		"gasEstimates": {
			"creation": {
				"codeDepositCost": "420600",
				"executionCost": "453",
				"totalCost": "421053"
			},
			"external": {
				"getName(uint8)": "infinite",
				"getNameCount()": "2418",
				"setName(string)": "infinite"
			}
		},
		"methodIdentifiers": {
			"getName(uint8)": "618b220f",
			"getNameCount()": "1d4b0c09",
			"setName(string)": "c47f0027"
		}
	},
	"abi": [
		{
			"inputs": [
				{
					"internalType": "uint8",
					"name": "index",
					"type": "uint8"
				}
			],
			"name": "getName",
			"outputs": [
				{
					"internalType": "string",
					"name": "",
					"type": "string"
				}
			],
			"stateMutability": "view",
			"type": "function"
		},
		{
			"inputs": [],
			"name": "getNameCount",
			"outputs": [
				{
					"internalType": "uint256",
					"name": "",
					"type": "uint256"
				}
			],
			"stateMutability": "view",
			"type": "function"
		},
		{
			"inputs": [
				{
					"internalType": "string",
					"name": "newString",
					"type": "string"
				}
			],
			"name": "setName",
			"outputs": [],
			"stateMutability": "nonpayable",
			"type": "function"
		}
	]
}